:020000040000fa
:080000000002040000000000f2
:020000040000fa
:04000800f002000002
:020000040000fa
:04000c00f0020000fe
:020000040000fa
:04001000f0020000fa
:020000040000fa
:04001400f0020000f6
:020000040000fa
:04001800f0020000f2
:020000040000fa
:04001c00f0020000ee
:020000040000fa
:04002000f0020000ea
:020000040000fa
:04002400f0020000e6
:020000040000fa
:04002800f0020000e2
:020000040000fa
:04002c00f0020000de
:020000040000fa
:04003000f0020000da
:020000040000fa
:04003400f0020000d6
:020000040000fa
:04003800f0020000d2
:020000040000fa
:04003c00f0020000ce
:020000040000fa
:04004000f0020000ca
:020000040000fa
:04004400f0020000c6
:020000040000fa
:04004800f0020000c2
:020000040000fa
:04004c00f0020000be
:020000040000fa
:04005000f0020000ba
:020000040000fa
:04005400f0020000b6
:020000040000fa
:04005800f0020000b2
:020000040000fa
:04005c00c8020000d6
:020000040000fa
:04006000f0020000aa
:020000040000fa
:04006400f0020000a6
:020000040000fa
:04006800f0020000a2
:020000040000fa
:04006c00f00200009e
:020000040000fa
:04007000f00200009a
:020000040000fa
:04007400f002000096
:020000040000fa
:04007800f002000092
:020000040000fa
:04007c00f00200008e
:020000040000fa
:04008000f00200008a
:020000040000fa
:04008400f002000086
:020000040000fa
:04008800f002000082
:020000040000fa
:04008c00f00200007e
:020000040000fa
:04009000f00200007a
:020000040000fa
:04009400f002000076
:020000040000fa
:04009800f002000072
:020000040000fa
:04009c00f00200006e
:020000040000fa
:0400a000f00200006a
:020000040000fa
:0400a400f002000066
:020000040000fa
:0400a800f002000062
:020000040000fa
:0400ac00f00200005e
:020000040000fa
:0400b000f00200005a
:020000040000fa
:0400b400f002000056
:020000040000fa
:0400b800f002000052
:020000040000fa
:0400bc00f00200004e
:020000040000fa
:0400c000f00200004a
:020000040000fa
:0400c400f002000046
:020000040000fa
:0400c800f002000042
:020000040000fa
:0400cc00f00200003e
:020000040000fa
:0400d000f00200003a
:020000040000fa
:0400d400f002000036
:020000040000fa
:0400d800f002000032
:020000040000fa
:0400dc00f00200002e
:020000040000fa
:0400e000f00200002a
:020000040000fa
:0400e400f002000026
:020000040000fa
:0400e800f002000022
:020000040000fa
:0400ec00f00200001e
:020000040000fa
:0400f000f00200001a
:020000040000fa
:0400f400f002000016
:020000040000fa
:0400f800f002000012
:020000040000fa
:0400fc00f00200000e
:020000040000fa
:04010000f002000009
:020000040000fa
:04010400f002000005
:020000040000fa
:04010800f002000001
:020000040000fa
:04010c00f0020000fd
:020000040000fa
:04011000f0020000f9
:020000040000fa
:04011400f0020000f5
:020000040000fa
:04011800f0020000f1
:020000040000fa
:04011c00f0020000ed
:020000040000fa
:04012000f0020000e9
:020000040000fa
:04012400f0020000e5
:020000040000fa
:04012800f0020000e1
:020000040000fa
:04012c00f0020000dd
:020000040000fa
:04013000f0020000d9
:020000040000fa
:04013400f0020000d5
:020000040000fa
:04013800f0020000d1
:020000040000fa
:04013c00f0020000cd
:020000040000fa
:04014000f0020000c9
:020000040000fa
:04014400f0020000c5
:020000040000fa
:04014800f0020000c1
:020000040000fa
:04020800f002000000
:020000040000fa
:04020c00f0020000fc
:020000040000fa
:04021000f0020000f8
:020000040000fa
:04021400f0020000f4
:020000040000fa
:04021800f0020000f0
:020000040000fa
:04021c00f0020000ec
:020000040000fa
:04022000f0020000e8
:020000040000fa
:04022400f0020000e4
:020000040000fa
:04022800f0020000e0
:020000040000fa
:04022c00f0020000dc
:020000040000fa
:04023000f0020000d8
:020000040000fa
:04023400f0020000d4
:020000040000fa
:04023800f0020000d0
:020000040000fa
:04023c00f0020000cc
:020000040000fa
:04024000f0020000c8
:020000040000fa
:04024400f0020000c4
:020000040000fa
:04024800f0020000c0
:020000040000fa
:04024c00f0020000bc
:020000040000fa
:04025000f0020000b8
:020000040000fa
:04025400f0020000b4
:020000040000fa
:04025800f0020000b0
:020000040000fa
:04025c00c8020000d4
:020000040000fa
:04026000f0020000a8
:020000040000fa
:04026400f0020000a4
:020000040000fa
:04026800f0020000a0
:020000040000fa
:04026c00f00200009c
:020000040000fa
:04027000f002000098
:020000040000fa
:04027400f002000094
:020000040000fa
:04027800f002000090
:020000040000fa
:04027c00f00200008c
:020000040000fa
:04028000f002000088
:020000040000fa
:04028400f002000084
:020000040000fa
:04028800f002000080
:020000040000fa
:04028c00f00200007c
:020000040000fa
:04029000f002000078
:020000040000fa
:04029400f002000074
:020000040000fa
:04029800f002000070
:020000040000fa
:04029c00f00200006c
:020000040000fa
:0402a000f002000068
:020000040000fa
:0402a400f002000064
:020000040000fa
:0402a800f002000060
:020000040000fa
:0402ac00f00200005c
:020000040000fa
:0402b000f002000058
:020000040000fa
:0402b400f002000054
:020000040000fa
:0402b800f002000050
:020000040000fa
:0402bc00f00200004c
:020000040000fa
:0402c000f002000048
:020000040000fa
:0402c400f002000044
:020000040000fa
:0402c800f002000040
:020000040000fa
:0402cc00f00200003c
:020000040000fa
:0402d000f002000038
:020000040000fa
:0402d400f002000034
:020000040000fa
:0402d800f002000030
:020000040000fa
:0402dc00f00200002c
:020000040000fa
:0402e000f002000028
:020000040000fa
:0402e400f002000024
:020000040000fa
:0402e800f002000020
:020000040000fa
:0402ec00f00200001c
:020000040000fa
:0402f000f002000018
:020000040000fa
:0402f400f002000014
:020000040000fa
:0402f800f002000010
:020000040000fa
:0402fc00f00200000c
:020000040000fa
:04030000f002000007
:020000040000fa
:04030400f002000003
:020000040000fa
:04030800f0020000ff
:020000040000fa
:04030c00f0020000fb
:020000040000fa
:04031000f0020000f7
:020000040000fa
:04031400f0020000f3
:020000040000fa
:04031800f0020000ef
:020000040000fa
:04031c00f0020000eb
:020000040000fa
:04032000f0020000e7
:020000040000fa
:04032400f0020000e3
:020000040000fa
:04032800f0020000df
:020000040000fa
:04032c00f0020000db
:020000040000fa
:04033000f0020000d7
:020000040000fa
:04033400f0020000d3
:020000040000fa
:04033800f0020000cf
:020000040000fa
:04033c00f0020000cb
:020000040000fa
:04034000f0020000c7
:020000040000fa
:04034400f0020000c3
:020000040000fa
:04034800f0020000bf
:020000040000fa
:100400004f0022000e7f22000e0188000000000035
:10041000000020000000e000020032000001200087
:1004200020028800140007006f0007000000e000b1
:1004300003003a0040642000010020000200370061
:100440000000200001002000810f70000100320038
:1004500014000700000020000000e000020032004d
:1004600000000200000000009e05020000000000e5
:100470000040da000000fe004440a9000000200017
:100480000000e0000300320000002000a00188000e
:100490004440a800000006008a1f78008b1f7800e7
:1004a0000000060091018800800478000000eb0045
:1004b0001a003700e284440032a0b4009905ba0063
:1004c000e284440032a0b4009906ba00e2844400f9
:1004d00032a0b4000006eb00476fde00fd07b2005b
:1004e000636ce10003003a00ebff07000000eb0043
:1004f0000a003700606ce10004003a00005deb0088
:100500008b05e900fdff3e00040037006168e10053
:10051000010032000086eb000b00070019c7ba008b
:100520001905ba000e04e00003003a000a00e000da
:10053000e0ff3a0000000600fe07b2009e018800be
:100540008a047800f5ff3700395dba008b05e900b1
:100550000c003200295dba008b05e900080032006a
:100560000c00e00003003a00e284440032a0b40032
:10057000f5ff370019ddba008b05e900faff3a00f4
:100580008904e800e184440032a0b40000000600c1
:100590003600f800809fbe00829fbe00849fbe0090
:1005a000869fbe003400f80000002000a0018800f3
:1005b0000000fa0085a0a9000018800031010700a2
:1005c0000080fa003400f9004f03be004f02be0065
:1005d0004f01be004f00be003600f900004006008b
:0c05e0000040da000000fe0000000500f2
:020000040000fa
:1005ec000400fa00100798000000eb00000f7800e0
:1005fc0002003700900107001e0fe8001e0090005b
:10060c009e007800808f5000faff35000080fa00c1
:10061c00000006000000fa0010002000f0ff0700a8
:10062c00ccc2a90010002000edff0700ccc2a8002e
:10063c0010002000eaff07000080fa00000006000e
:10064c000200fa00004f78008620a900cca2a80076
:10065c000602a8000000000030108000610060005d
:10066c000000e000fcff3a008620a9008007200073
:10067c001010880000000000300480006200600050
:10068c000000e000fcff32008620a9000222ef00ef
:10069c000000000030048000620060000000e000f8
:1006ac00fcff32008620a9001e00fb001010880001
:1006bc000000000030048000620060000000e000d8
:1006cc00fcff32000642a800000000003010800041
:1006dc00640060000000e000fcff3a00cca2a9001e
:1006ec000080fa00000006000200fa00000f7800fb
:1006fc00c8ff0700a0c3b300d1ff070090c0b30030
:10070c00cfff070060c0b300cdff0700e0c1b3000e
:10071c00cbff070090c3b300c9ff0700b0c1b30003
:10072c00c7ff0700e0c6b300c5ff070060c5b300f4
:10073c00c3ff07001e0078008040780000c7b3009c
:10074c0000c07000beff070080c3b300bcff0700f1
:10075c00c0c0b300baff07000080fa00000006001a
:10076c000000fa00a0c3b300b5ff070090c0b300af
:10077c00b3ff0700a0c1b300b1ff0700c0c3b300b3
:10078c00afff070010c0b300adff07000080fa00f8
:10079c00000006000000fa000622ef0007e2a900a4
:1007ac008620a900d00920002010880007e2a800ac
:1007bc00401680003000b3004016880041168000bf
:1007cc00f0c92f000080600040168800a0002000b7
:1007dc00c5ff0700e2ff07000080fa0000000600da
:1007ec000200fa00004f7800114798001e4090005c
:1007fc00c500dd001e40780000c040000074a00061
:10080c008fff07000080fa00000006000200fa00cb
:10081c00004f78008620a900cca2a8000602a800f0
:10082c000000000030108000610060000000e0005b
:10083c00fcff3a008620a9008007200010108800d9
:10084c000000000030048000620060000000e00046
:10085c00fcff32008620a900000420001010880044
:10086c000000000030048000620060000000e00026
:10087c00fcff32008620a9001e00fb00101088002f
:10088c000000000030048000620060000000e00006
:10089c00fcff32000642a80000000000301080006f
:1008ac00640060000000e000fcff3a00cca2a9004c
:1008bc000080fa00000006000000fa0080c1b300be
:1008cc005fff07000080fa00000006000400fa0039
:1008dc00100798000000eb00000f780006003700ae
:1008ec001e0078009e0090000080400010407800b0
:1008fc001e0fe800c5ff07001e0078009e00900048
:10090c0000804000104078000004e000f4ff3a0042
:10091c000080fa00000006000000fa0010c0b300ce
:10092c0047ff07000080fa00000006000000fa00f4
:10093c0021e3a800610007000080fa000000060017
:10094c000000fa0021e3a9000080fa000000060074
:10095c000200fa000000eb00000f78000c003700da
:10096c001e007800c200dd004080200000804000a6
:10097c001000be00800078001e00780000014000ce
:10098c004080210000004100010878001e0fe800a3
:10099c001e0078006101b900004080001140800009
:1009ac00800f5100818f5900edff350040802100f0
:1009bc000080fa00000006000000fa0000408000f1
:1009cc0011408000000078000080fa000000060052
:1009dc000000fa00213a8000f08f2f0000806000a8
:1009ec00203a8800c002a8002c03a900011980003d
:1009fc00f0cf2f00008060000019880001198000e2
:100a0c00f0f12f00008060000060a0000019880049
:100a1c0011198000f0ff210000806000101988007f
:100a2c002043a8001119800030fc2f0000806000ca
:100a3c0010198800f0c3b30024e3b700211980001b
:100a4c00f00f2e000080600000c0a000201988006c
:100a5c0085a0a90095a0a80000012000900888009e
:100a6c0080d02300700888000a21ef0013e1a80051
:100a7c000080fa00000006000200fa00000f780067
:100a8c0000408000114080001e017800cf91de00f4
:100a9c0000027800c222dd00448020000482420063
:100aac00028abe0061004000e080480000408800df
:100abc00114088000080fa00000006000200fa00d5
:100acc000000eb00000f7800070037001e007800d4
:100adc00c200dd0040802000008140006000b800b2
:100aec000089be001e0fe800f03f20009e00780039
:100afc00808f5000f5ff34000028ef000228ef0033
:100b0c000080fa00000006000000fa00213a800084
:100b1c00f08f2f0000806000203a8800f0ff290041
:100b2c00601988001bff07000080fa000000060017
:100b3c000600fa00f4ff0700f0ff29006019880096
:100b4c00a3ff0700ddff070010002000000f780056
:100b5c001000200010079800010037000000000072
:100b6c0010002000000f78001000370010168000d5
:100b7c0000407800614060000080fb002007980076
:100b8c001e0078000000e000080032002e009000eb
:100b9c00004078000043b0001cff07000000eb0091
:100bac00000f7800100020001007980009000700c3
:100bbc000000e000edff3a001e0090000000e00095
:100bcc00e6ff320054ff07000000eb00100798000e
:100bdc00e3ff37000000fa00501680004400de00ee
:100bec00614060000080fb000080fa0000000600fd
:100bfc000000fa00401680004400de0061406000f6
:100c0c000004a000614060000080fb0061006000f7
:100c1c004400dd00411680000140a100010070007d
:100c2c00401688000080fa00000006003906090012
:100c3c000000000000000600793e090000000000e2
:100c4c0000000600c422ec000300090000000000b4
:100c5c00c422ef000500090000000000000006009f
:100c6c00c422ec000800090000000000c422ef00c0
:0c0c7c000200090000000000000006005b
:020000040000fa
:100c88000408000000180000000000000008000030
:0c0c98000400000000000000000000004c
:020000040000fa
:020000040001f9
:0457f8000ff90000a5
:020000040000fa
:020000040001f9
:0457fc007f3f0000eb
:00000001FF
