:020000040000fa
:080000000002040000000000f2
:020000040000fa
:04000800c80200002a
:020000040000fa
:04000c00c802000026
:020000040000fa
:04001000c802000022
:020000040000fa
:04001400c80200001e
:020000040000fa
:04001800c80200001a
:020000040000fa
:04001c00c802000016
:020000040000fa
:04002000c802000012
:020000040000fa
:04002400c80200000e
:020000040000fa
:04002800c80200000a
:020000040000fa
:04002c00c802000006
:020000040000fa
:04003000c802000002
:020000040000fa
:04003400c8020000fe
:020000040000fa
:04003800c8020000fa
:020000040000fa
:04003c00c8020000f6
:020000040000fa
:04004000c8020000f2
:020000040000fa
:04004400c8020000ee
:020000040000fa
:04004800c8020000ea
:020000040000fa
:04004c00c8020000e6
:020000040000fa
:04005000c8020000e2
:020000040000fa
:04005400c8020000de
:020000040000fa
:04005800c8020000da
:020000040000fa
:04005c00c8020000d6
:020000040000fa
:04006000c8020000d2
:020000040000fa
:04006400c8020000ce
:020000040000fa
:04006800c8020000ca
:020000040000fa
:04006c00c8020000c6
:020000040000fa
:04007000c8020000c2
:020000040000fa
:04007400c8020000be
:020000040000fa
:04007800c8020000ba
:020000040000fa
:04007c00c8020000b6
:020000040000fa
:04008000c8020000b2
:020000040000fa
:04008400c8020000ae
:020000040000fa
:04008800c8020000aa
:020000040000fa
:04008c00c8020000a6
:020000040000fa
:04009000c8020000a2
:020000040000fa
:04009400c80200009e
:020000040000fa
:04009800c80200009a
:020000040000fa
:04009c00c802000096
:020000040000fa
:0400a000c802000092
:020000040000fa
:0400a400c80200008e
:020000040000fa
:0400a800c80200008a
:020000040000fa
:0400ac00c802000086
:020000040000fa
:0400b000c802000082
:020000040000fa
:0400b400c80200007e
:020000040000fa
:0400b800c80200007a
:020000040000fa
:0400bc00c802000076
:020000040000fa
:0400c000c802000072
:020000040000fa
:0400c400c80200006e
:020000040000fa
:0400c800c80200006a
:020000040000fa
:0400cc00c802000066
:020000040000fa
:0400d000c802000062
:020000040000fa
:0400d400c80200005e
:020000040000fa
:0400d800c80200005a
:020000040000fa
:0400dc00c802000056
:020000040000fa
:0400e000c802000052
:020000040000fa
:0400e400c80200004e
:020000040000fa
:0400e800c80200004a
:020000040000fa
:0400ec00c802000046
:020000040000fa
:0400f000c802000042
:020000040000fa
:0400f400c80200003e
:020000040000fa
:0400f800c80200003a
:020000040000fa
:0400fc00c802000036
:020000040000fa
:04010000c802000031
:020000040000fa
:04010400c80200002d
:020000040000fa
:04010800c802000029
:020000040000fa
:04010c00c802000025
:020000040000fa
:04011000c802000021
:020000040000fa
:04011400c80200001d
:020000040000fa
:04011800c802000019
:020000040000fa
:04011c00c802000015
:020000040000fa
:04012000c802000011
:020000040000fa
:04012400c80200000d
:020000040000fa
:04012800c802000009
:020000040000fa
:04012c00c802000005
:020000040000fa
:04013000c802000001
:020000040000fa
:04013400c8020000fd
:020000040000fa
:04013800c8020000f9
:020000040000fa
:04013c00c8020000f5
:020000040000fa
:04014000c8020000f1
:020000040000fa
:04014400c8020000ed
:020000040000fa
:04014800c8020000e9
:020000040000fa
:04020800c802000028
:020000040000fa
:04020c00c802000024
:020000040000fa
:04021000c802000020
:020000040000fa
:04021400c80200001c
:020000040000fa
:04021800c802000018
:020000040000fa
:04021c00c802000014
:020000040000fa
:04022000c802000010
:020000040000fa
:04022400c80200000c
:020000040000fa
:04022800c802000008
:020000040000fa
:04022c00c802000004
:020000040000fa
:04023000c802000000
:020000040000fa
:04023400c8020000fc
:020000040000fa
:04023800c8020000f8
:020000040000fa
:04023c00c8020000f4
:020000040000fa
:04024000c8020000f0
:020000040000fa
:04024400c8020000ec
:020000040000fa
:04024800c8020000e8
:020000040000fa
:04024c00c8020000e4
:020000040000fa
:04025000c8020000e0
:020000040000fa
:04025400c8020000dc
:020000040000fa
:04025800c8020000d8
:020000040000fa
:04025c00c8020000d4
:020000040000fa
:04026000c8020000d0
:020000040000fa
:04026400c8020000cc
:020000040000fa
:04026800c8020000c8
:020000040000fa
:04026c00c8020000c4
:020000040000fa
:04027000c8020000c0
:020000040000fa
:04027400c8020000bc
:020000040000fa
:04027800c8020000b8
:020000040000fa
:04027c00c8020000b4
:020000040000fa
:04028000c8020000b0
:020000040000fa
:04028400c8020000ac
:020000040000fa
:04028800c8020000a8
:020000040000fa
:04028c00c8020000a4
:020000040000fa
:04029000c8020000a0
:020000040000fa
:04029400c80200009c
:020000040000fa
:04029800c802000098
:020000040000fa
:04029c00c802000094
:020000040000fa
:0402a000c802000090
:020000040000fa
:0402a400c80200008c
:020000040000fa
:0402a800c802000088
:020000040000fa
:0402ac00c802000084
:020000040000fa
:0402b000c802000080
:020000040000fa
:0402b400c80200007c
:020000040000fa
:0402b800c802000078
:020000040000fa
:0402bc00c802000074
:020000040000fa
:0402c000c802000070
:020000040000fa
:0402c400c80200006c
:020000040000fa
:0402c800c802000068
:020000040000fa
:0402cc00c802000064
:020000040000fa
:0402d000c802000060
:020000040000fa
:0402d400c80200005c
:020000040000fa
:0402d800c802000058
:020000040000fa
:0402dc00c802000054
:020000040000fa
:0402e000c802000050
:020000040000fa
:0402e400c80200004c
:020000040000fa
:0402e800c802000048
:020000040000fa
:0402ec00c802000044
:020000040000fa
:0402f000c802000040
:020000040000fa
:0402f400c80200003c
:020000040000fa
:0402f800c802000038
:020000040000fa
:0402fc00c802000034
:020000040000fa
:04030000c80200002f
:020000040000fa
:04030400c80200002b
:020000040000fa
:04030800c802000027
:020000040000fa
:04030c00c802000023
:020000040000fa
:04031000c80200001f
:020000040000fa
:04031400c80200001b
:020000040000fa
:04031800c802000017
:020000040000fa
:04031c00c802000013
:020000040000fa
:04032000c80200000f
:020000040000fa
:04032400c80200000b
:020000040000fa
:04032800c802000007
:020000040000fa
:04032c00c802000003
:020000040000fa
:04033000c8020000ff
:020000040000fa
:04033400c8020000fb
:020000040000fa
:04033800c8020000f7
:020000040000fa
:04033c00c8020000f3
:020000040000fa
:04034000c8020000ef
:020000040000fa
:04034400c8020000eb
:020000040000fa
:04034800c8020000e7
:020000040000fa
:100400002f8020000e7f22000e01880000000000d7
:10041000000020000000e000020032000001200087
:1004200020028800140007005b0007000000e000c5
:1004300003003a0060542000010020000200370051
:100440000000200001002000810f70000100320038
:1004500014000700000020000000e000020032004d
:1004600000000200000000008804020000000000fc
:100470000040da000000fe004440a9000000200017
:100480000000e0000300320000002000a00188000e
:100490004440a800000006008a1f78008b1f7800e7
:1004a0000000060091018800800478000000eb0045
:1004b0001a003700e284440032a0b4009905ba0063
:1004c000e284440032a0b4009906ba00e2844400f9
:1004d00032a0b4000006eb00476fde00fd07b2005b
:1004e000636ce10003003a00ebff07000000eb0043
:1004f0000a003700606ce10004003a00005deb0088
:100500008b05e900fdff3e00040037006168e10053
:10051000010032000086eb000b00070019c7ba008b
:100520001905ba000e04e00003003a000a00e000da
:10053000e0ff3a0000000600fe07b2009e018800be
:100540008a047800f5ff3700395dba008b05e900b1
:100550000c003200295dba008b05e900080032006a
:100560000c00e00003003a00e284440032a0b40032
:10057000f5ff370019ddba008b05e900faff3a00f4
:100580008904e800e184440032a0b40000000600c1
:0c0590000040da000000fe000000050042
:020000040000fa
:10059c000400fa00100798000000eb00000f780030
:1005ac0002003700140107001e0fe8001e00900027
:1005bc009e007800808f5000faff35000080fa0012
:1005cc00000006000000fa0010002000f0ff0700f9
:1005dc00ccc2a90010002000edff0700ccc2a8007f
:1005ec0010002000eaff07000080fa00000006005f
:1005fc000200fa00004f78008620a900cca2a800c7
:10060c000602a800000000003010800061006000ad
:10061c000000e000fcff3a008620a90080072000c3
:10062c0010108800000000003004800062006000a0
:10063c000000e000fcff32008620a9000222ef003f
:10064c000000000030048000620060000000e00048
:10065c00fcff32008620a9001e00fb001010880051
:10066c000000000030048000620060000000e00028
:10067c00fcff32000642a800000000003010800091
:10068c00640060000000e000fcff3a00cca2a9006e
:10069c000080fa00000006000200fa00000f78004b
:1006ac00c8ff0700a0c3b300d1ff070090c0b30080
:1006bc00cfff070060c0b300cdff0700e0c1b3005f
:1006cc00cbff070090c3b300c9ff0700b0c1b30054
:1006dc00c7ff0700e0c6b300c5ff070060c5b30045
:1006ec00c3ff07001e0078008040780000c7b300ed
:1006fc0000c07000beff070080c3b300bcff070042
:10070c00c0c0b300baff07000080fa00000006006a
:10071c000000fa00a0c3b300b5ff070090c0b300ff
:10072c00b3ff0700a0c1b300b1ff0700c0c3b30003
:10073c00afff070010c0b300adff07000080fa0048
:10074c00000006000000fa000622ef0007e2a900f4
:10075c008620a900d00920002010880007e2a800fc
:10076c00401680003000b30040168800411680000f
:10077c00f0c92f000080600040168800a000200007
:10078c00c5ff0700e2ff07000080fa00000006002a
:10079c000200fa00004f7800114798001e409000ac
:1007ac00c500dd001e40780000c040000074a000b1
:1007bc008fff07000080fa00000006000200fa001c
:1007cc00004f78008620a900cca2a8000602a80041
:1007dc000000000030108000610060000000e000ac
:1007ec00fcff3a008620a90080072000101088002a
:1007fc000000000030048000620060000000e00097
:10080c00fcff32008620a900000420001010880094
:10081c000000000030048000620060000000e00076
:10082c00fcff32008620a9001e00fb00101088007f
:10083c000000000030048000620060000000e00056
:10084c00fcff32000642a8000000000030108000bf
:10085c00640060000000e000fcff3a00cca2a9009c
:10086c000080fa00000006000000fa0080c1b3000e
:10087c005fff07000080fa00000006000400fa0089
:10088c00100798000000eb00000f780006003700fe
:10089c001e0078009e009000008040001040780000
:1008ac001e0fe800c5ff07001e0078009e00900098
:1008bc0000804000104078000004e000f4ff3a0093
:1008cc000080fa00000006000000fa0010c0b3001f
:1008dc0047ff07000080fa00000006000000fa0045
:1008ec00213a8000f08f2f0000806000203a8800b1
:1008fc00f0ff29006019880092ff07000080fa00c1
:10090c00000006000600fa00f4ff070010002000ab
:10091c00000f780010002000100798001000200035
:10092c00000f78001000370010168000004078008f
:10093c00614060000080fb00200798001e007800da
:10094c000000e000080032002e009000004078000b
:10095c000043b00099ff07000000eb00000f780087
:10096c0010002000100798000a0007000000e000ab
:10097c00edff3a001e0090000000e0000300320082
:10098c00d1ff07000000eb00100798002b000700b8
:10099c00e2ff37000000fa00501680004400de0031
:1009ac00614060000080fb000080fa00000006003f
:1009bc000000fa00401680004400de006140600038
:1009cc000004a000614060000080fb00610060003a
:1009dc004400dd00411680000140a10001007000c0
:1009ec00401688000080fa00000006003906090055
:1009fc000000000000000600793e09000000000025
:100a0c0000000600c422ec000300090000000000f6
:100a1c00c422ef00050009000000000000000600e1
:100a2c00c422ec000800090000000000c422ef0002
:100a3c000200090000000000000006000000fa009f
:100a4c00004080000080fa00000006000000fa0060
:100a5c000028ef000080fa00000006000000fa00f9
:100a6c0010002000004088000080fa000000060002
:100a7c000000fa000000eb000080fa000000060005
:020000040000fa
:100a8c000008000002000000000000000000000050
:020000040000fa
:020000040001f9
:0457f8000ff90000a5
:020000040000fa
:020000040001f9
:0457fc007f3f0000eb
:00000001FF
